{
  "contractName": "userRecord",
  "abi": [
    {
      "constant": true,
      "inputs": [],
      "name": "owner",
      "outputs": [
        {
          "name": "",
          "type": "address"
        }
      ],
      "payable": false,
      "stateMutability": "view",
      "type": "function"
    },
    {
      "constant": false,
      "inputs": [
        {
          "name": "user",
          "type": "address"
        },
        {
          "name": "hash",
          "type": "bytes32"
        }
      ],
      "name": "setup",
      "outputs": [],
      "payable": false,
      "stateMutability": "nonpayable",
      "type": "function"
    },
    {
      "constant": false,
      "inputs": [],
      "name": "revoke",
      "outputs": [],
      "payable": false,
      "stateMutability": "nonpayable",
      "type": "function"
    },
    {
      "constant": false,
      "inputs": [
        {
          "name": "user",
          "type": "address"
        },
        {
          "name": "valid_time",
          "type": "uint256"
        }
      ],
      "name": "authorize",
      "outputs": [],
      "payable": false,
      "stateMutability": "nonpayable",
      "type": "function"
    },
    {
      "constant": true,
      "inputs": [],
      "name": "retrieve",
      "outputs": [
        {
          "name": "",
          "type": "bytes32"
        }
      ],
      "payable": false,
      "stateMutability": "view",
      "type": "function"
    },
    {
      "constant": true,
      "inputs": [],
      "name": "get_auth",
      "outputs": [
        {
          "name": "",
          "type": "address"
        }
      ],
      "payable": false,
      "stateMutability": "view",
      "type": "function"
    }
  ],
  "bytecode": "0x60806040527364a20b6347347444a970c5b8ad099125c3f01ebd600360006101000a81548173ffffffffffffffffffffffffffffffffffffffff021916908373ffffffffffffffffffffffffffffffffffffffff1602179055506001600360146101000a81548160ff02191690831515021790555034801561008057600080fd5b50610b8c806100906000396000f300608060405260043610610078576000357c0100000000000000000000000000000000000000000000000000000000900463ffffffff16806319f29f1e1461007d5780632e64cec1146100ce5780638da5cb5b14610101578063b6549f7514610158578063c1dbd9b21461016f578063ee8fa7c9146101bc575b600080fd5b34801561008957600080fd5b506100cc600480360381019080803573ffffffffffffffffffffffffffffffffffffffff1690602001909291908035600019169060200190929190505050610213565b005b3480156100da57600080fd5b506100e361034d565b60405180826000191660001916815260200191505060405180910390f35b34801561010d57600080fd5b5061011661054f565b604051808273ffffffffffffffffffffffffffffffffffffffff1673ffffffffffffffffffffffffffffffffffffffff16815260200191505060405180910390f35b34801561016457600080fd5b5061016d610574565b005b34801561017b57600080fd5b506101ba600480360381019080803573ffffffffffffffffffffffffffffffffffffffff1690602001909291908035906020019092919050505061067c565b005b3480156101c857600080fd5b506101d1610918565b604051808273ffffffffffffffffffffffffffffffffffffffff1673ffffffffffffffffffffffffffffffffffffffff16815260200191505060405180910390f35b600360009054906101000a900473ffffffffffffffffffffffffffffffffffffffff1673ffffffffffffffffffffffffffffffffffffffff163373ffffffffffffffffffffffffffffffffffffffff161415156102fe576040517f08c379a000000000000000000000000000000000000000000000000000000000815260040180806020018281038252602a8152602001807f596f7520646f6e277420686176652061636365737320746f206372656174652081526020017f6120636f6e74726163740000000000000000000000000000000000000000000081525060400191505060405180910390fd5b816000806101000a81548173ffffffffffffffffffffffffffffffffffffffff021916908373ffffffffffffffffffffffffffffffffffffffff16021790555080600181600019169055505050565b600080600260003373ffffffffffffffffffffffffffffffffffffffff1673ffffffffffffffffffffffffffffffffffffffff1681526020019081526020016000205414151515610406576040517f08c379a00000000000000000000000000000000000000000000000000000000081526004018080602001828103825260208152602001807f596f7520646f6e277420686176652061636365737320746f207265747269766581525060200191505060405180910390fd5b42600260003373ffffffffffffffffffffffffffffffffffffffff1673ffffffffffffffffffffffffffffffffffffffff168152602001908152602001600020541115156104bc576040517f08c379a00000000000000000000000000000000000000000000000000000000081526004018080602001828103825260168152602001807f546865206163636573732068617320657870697265640000000000000000000081525060200191505060405180910390fd5b60011515600360149054906101000a900460ff161515141515610547576040517f08c379a00000000000000000000000000000000000000000000000000000000081526004018080602001828103825260178152602001807f54686520636f6e7472616374206973207265766f6b656400000000000000000081525060200191505060405180910390fd5b600154905090565b6000809054906101000a900473ffffffffffffffffffffffffffffffffffffffff1681565b600360009054906101000a900473ffffffffffffffffffffffffffffffffffffffff1673ffffffffffffffffffffffffffffffffffffffff163373ffffffffffffffffffffffffffffffffffffffff1614151561065f576040517f08c379a000000000000000000000000000000000000000000000000000000000815260040180806020018281038252602c8152602001807f596f7520646f6e277420686176652061636365737320746f207265766f6b652081526020017f74686520636f6e7472616374000000000000000000000000000000000000000081525060400191505060405180910390fd5b6000600360146101000a81548160ff021916908315150217905550565b6000809054906101000a900473ffffffffffffffffffffffffffffffffffffffff1673ffffffffffffffffffffffffffffffffffffffff163373ffffffffffffffffffffffffffffffffffffffff16141515610766576040517f08c379a00000000000000000000000000000000000000000000000000000000081526004018080602001828103825260228152602001807f596f7520646f6e277420686176652061636365737320746f20617574686f726981526020017f7a6500000000000000000000000000000000000000000000000000000000000081525060400191505060405180910390fd5b6000600260008473ffffffffffffffffffffffffffffffffffffffff1673ffffffffffffffffffffffffffffffffffffffff16815260200190815260200160002054141515610843576040517f08c379a00000000000000000000000000000000000000000000000000000000081526004018080602001828103825260248152602001807f546865207573657220697320616c726561647920696e2074686520776869746581526020017f6c6973740000000000000000000000000000000000000000000000000000000081525060400191505060405180910390fd5b60011515600360149054906101000a900460ff1615151415156108ce576040517f08c379a00000000000000000000000000000000000000000000000000000000081526004018080602001828103825260178152602001807f54686520636f6e7472616374206973207265766f6b656400000000000000000081525060200191505060405180910390fd5b804201600260008473ffffffffffffffffffffffffffffffffffffffff1673ffffffffffffffffffffffffffffffffffffffff168152602001908152602001600020819055505050565b600080600260003373ffffffffffffffffffffffffffffffffffffffff1673ffffffffffffffffffffffffffffffffffffffff16815260200190815260200160002054141515156109f7576040517f08c379a00000000000000000000000000000000000000000000000000000000081526004018080602001828103825260268152602001807f596f7520646f6e277420686176652061636365737320746f206765742061757481526020017f686f72697479000000000000000000000000000000000000000000000000000081525060400191505060405180910390fd5b42600260003373ffffffffffffffffffffffffffffffffffffffff1673ffffffffffffffffffffffffffffffffffffffff16815260200190815260200160002054111515610aad576040517f08c379a00000000000000000000000000000000000000000000000000000000081526004018080602001828103825260168152602001807f546865206163636573732068617320657870697265640000000000000000000081525060200191505060405180910390fd5b60011515600360149054906101000a900460ff161515141515610b38576040517f08c379a00000000000000000000000000000000000000000000000000000000081526004018080602001828103825260178152602001807f54686520636f6e7472616374206973207265766f6b656400000000000000000081525060200191505060405180910390fd5b600360009054906101000a900473ffffffffffffffffffffffffffffffffffffffff169050905600a165627a7a7230582065cfbf86704cca9f59e0b397806e309648d48df519e626f2ec3a9a10997c07730029",
  "source": "pragma solidity ^0.4.24;\n\ncontract userRecord {\n\n    address public owner;\n    bytes32 biohash;\n    mapping(address=>uint) whitelist;\n    address authority = 0x64a20b6347347444a970C5B8ad099125C3f01EbD;\n    bool enabled=true;\n\n    function setup (address user, bytes32 hash) public {\n        require(msg.sender == authority,\"You don't have access to create a contract\");\n        owner=user;\n        biohash=hash;\n    }\n\n    function revoke () public{\n        require(msg.sender==authority,\"You don't have access to revoke the contract\");\n        enabled=false;\n    }\n\n    function authorize(address user,uint valid_time) public {\n        require(msg.sender==owner,\"You don't have access to authorize\");\n        require(whitelist[user]==0,\"The user is already in the whitelist\");\n        require(enabled==true,\"The contract is revoked\");\n        whitelist[user]=now+valid_time;\n    }\n\n    function retrieve() public constant returns (bytes32){\n        require(whitelist[msg.sender]!=0,\"You don't have access to retrive\");\n        require(whitelist[msg.sender]>now,\"The access has expired\");\n        require(enabled==true,\"The contract is revoked\");\n        return biohash;\n    }\n\n    function get_auth() public constant returns (address){\n        require(whitelist[msg.sender]!=0,\"You don't have access to get authority\");\n        require(whitelist[msg.sender]>now,\"The access has expired\");\n        require(enabled==true,\"The contract is revoked\");\n        return authority;\n    }\n\n}\n",
  "sourcePath": "/Users/user/Desktop/sgc/Project/Data/truffle/contracts/user.sol",
  "compiler": {
    "name": "solc",
    "version": "0.4.24+commit.e67f0147.Emscripten.clang"
  },
  "schemaVersion": "2.0.1",
  "updatedAt": "2019-01-11T15:38:15.251Z"
}